:060000000A128A116429B6
:10000800F000030EF1000B1914200C181C208C189A
:1000180064200B185420710E8300F00E700E090036
:10002800031383123D3081000B118801FA21080067
:100038000B308F0047308E000C10AD0A24200800CA
:10004800AD1C0800AD01AF0A2A200800AF1C08004B
:10005800AF1D0800AF01AE0A32200800AE1C080030
:100068002E1D0800AE01B20AB00A3C203008080074
:10007800B21C0800B21D0800B201B001B30A452045
:100088000800B31C0800331D0800B301B10A4D2055
:100098000800B31C0800B31D0800B301B60A080025
:1000A800211C58285E280800861CA00A061C21145A
:1000B8000B100800861C8503061C21100B10080075
:0400C8008C10080090
:1002A0008A010A140F3982073F3406345B344F3415
:1002B00066346D347D3407347F346F3477347C3466
:1002C00039345E34793471348421B521C221D0218E
:1002D000AE21E021A3210313831233085021A9008A
:1002E00030085021AA0031085021AB0036085021B7
:1002F000AC00211C7C29802909148910ED216D296D
:10030000891409106D296D29031783168801890145
:1003100003138316850187010910891008108810BE
:1003200008118811061486140615861581131514F4
:100330009514151595150313831285018601870100
:1003400088018901080003138316161496141615E4
:1003500096150313831206080B1008000313831667
:100360000F178F160F120F14080003138316811234
:100370008111011581140114031383123D30810092
:100380000B1108000313831210139016101690110E
:10039000901010140B308F0047308E000C100800A6
:1003A0000313831212179216121692151215921435
:1003B000121403138316C330920091018C100800AD
:1003C000031383160C148C14031383128B160B1156
:1003D0000C108C100B178B170800221CF029F52924
:1003E000861C850A061D22140800861C850A061D27
:1003F000221008000810881008118811A8180B2A6C
:100400002819112AA819172A052A290887008815EA
:10041000A801A81408002A0887000815A8012815B3
:1004200008002B0887008814A801A81508002C08CC
:0A04300087000814A8012814080032
:04400E00C420FF3F8C
:00000001FF
